:020000040800F2
:10000000A8060020CD010008190500081B050008FE
:100010001F05000823050008270500080000000050
:100020000000000000000000000000002B05000898
:100030002D050008000000002F050008310500080C
:10004000E7010008E7010008E7010008E7010008F0
:10005000E7010008E7010008E7010008E7010008E0
:10006000E7010008E7010008E7010008E7010008D0
:10007000E7010008E7010008E7010008E7010008C0
:10008000E7010008E7010008E7010008E7010008B0
:10009000E7010008E7010008E7010008E7010008A0
:1000A000E7010008E7010008E7010008E701000890
:1000B000E7010008E7010008E7010008E701000880
:1000C000E7010008E7010008E7010008E701000870
:1000D000E7010008E7010008E7010008E701000860
:1000E000E7010008E7010008E7010008E701000850
:1000F000E7010008E7010008E7010008E701000840
:10010000E7010008E7010008AB3E0008E70100082E
:10011000E7010008E7010008E7010008E70100081F
:10012000E7010008E7010008E7010008E70100080F
:1001300000F002F800F03AF80AA090E8000C8244BF
:100140008344AAF10107DA4501D100F02FF8AFF29C
:10015000090EBAE80F0013F0010F18BFFB1A43F0A5
:10016000010318471057000030570000103A24BF11
:1001700078C878C1FAD8520724BF30C830C144BF0C
:1001800004680C607047000000230024002500264E
:10019000103A28BF78C1FBD8520728BF30C148BFEA
:1001A0000B6070471FB51FBD10B510BD03F04BFFAE
:1001B0001146FFF7F7FF00F029F803F069FF03B4D9
:1001C000FFF7F2FF03BC03F06DFF00000948804712
:1001D00009480047FEE7FEE7FEE7FEE7FEE7FEE729
:1001E000FEE7FEE7FEE7FEE704480549054A064B41
:1001F000704700001306000831010008A800002025
:10020000A8060020A8020020A80200201CB5002596
:10021000002603F0E6F947214FF6FF7003F0E6FDF4
:1002200000F078FA002002F059FE4FF4784003F015
:1002300085F91F207A4908804FF6E07079490880D7
:1002400079A018210B46C822CDE9001028213520BD
:1002500003F063FD78A018210B466422CDE900105D
:10026000E621692003F059FD4FF478406D4908807C
:100270004FF6E0706A49088070A010210B464FF4D9
:100280009672CDE9001040210A2003F046FD6BA0D4
:1002900010210B464FF49672CDE90010D6210A20AA
:1002A00003F03BFD4FF4FC605E4908801F205C4971
:1002B00008806AA018210B46C822CDE900105A21F7
:1002C000142003F02AFD6AA010210B46C822CDE9B4
:1002D00000108C213C2003F020FD65A010210B466E
:1002E0007822CDE90010AA213C2003F016FD95E00C
:1002F00003F07AFE0446002CF9D0622C3ED017DCC5
:10030000302C5AD00BDC102C5DD003DC4CB3022C0B
:1003100063D135E0182C52D0222C5ED13FE0382C2E
:1003200053D0422C55D0522C55D05A2C55D14EE09A
:10033000A82C38D00CDC902C37D004DC682C36D0BC
:100340007A2C4AD13DE0982C33D0A22C45D10AE03A
:10035000B02C30D0C22C20D0E02C22D0E22C3CD1CA
:1003600010E048A639E049A64FF48071494800F0F2
:100370007CFB0421484800F078FB2EE047A62CE0E7
:1003800047A62AE048A64FF48071424800F06BFB74
:100390000421414800F067FB1FE046A61DE047A688
:1003A0001BE048A619E049A617E04AA615E04BA6AF
:1003B00013E04BA611E04BA60FE04BA60DE04BA6B9
:1003C0000BE04BA609E04BA607E04BA605E04BA6C9
:1003D00003E04BA601E04BA600BF00BF00201021A8
:1003E00003232246CDE900108C21AF2003F036FC18
:1003F000A5420AD0254645A010210B463222CDE960
:100400000010AA21AF2003F088FC102003463222FE
:10041000AA21CDE90006AF2003F07FFC68E70000C9
:10042000280000202A0000205A68616F2048756962
:1004300053686F75000000004F4B00002A2A2A2ADB
:100440002A2A2A2A2A2A2A2A2A2A2A2A2A2A2A2A0C
:100450002A2A2A2A2A2A2A2A000000005448455F0C
:10046000434150545552455F5445535421000000B8
:10047000546865206B65792076616C75653A20203B
:10048000200000004552524F52000000504F574587
:1004900052000000000801400014014055500000C7
:1004A000504C415900000000414C49454E54454BC9
:1004B0000000000052494748540000004C45465493
:1004C00000000000564F4C2D00000000444F574ED6
:1004D00000000000564F4C2B0000000031000000CF
:1004E000320000003300000034000000350000003E
:1004F000360000003700000038000000390000001E
:100500003000000044454C45544500002020202088
:100510002020202000000000704700BFFEE700BF41
:10052000FEE700BFFEE700BFFEE770477047704779
:10053000704700000CB50020019000906C480068E6
:1005400040F480306A49086000BF6948006800F4E0
:10055000003000900198401C0190009818B9019853
:10056000B0F5A06FF1D16248006800F4003010B11E
:100570000120009001E0002000900098012843D164
:100580005C48006840F010005A490860084600685E
:1005900020F0030008600846006840F00200086090
:1005A00053484068524948600846406848600846D9
:1005B000406840F4806048600846406820F47C1041
:1005C00048600846406840F4E81048600846006803
:1005D00040F08070086000BF4548006800F000707F
:1005E0000028F9D04248406820F0030040494860A4
:1005F0000846406840F00200486000BF3C48406840
:1006000000F00C000828F9D10CBD10B5FFF792FFDF
:1006100010BD10B53648006840F00100344908604C
:100620000846406834490840314948600846006837
:10063000324908402E4908600846006820F48020AE
:1006400008600846406820F4FE0048604FF41F0030
:100650008860FFF7DAFF4FF000602949086010BD9D
:1006600010B5002100200022214B5B6803F00C0133
:1006700021B1042906D0082928D107E0214B224CBA
:10068000236027E01F4B204C236023E0184B5B685E
:1006900003F47010164B5B6803F48032022303EB03
:1006A000904022B9194B4343174C23600DE0104B87
:1006B0005B6803F4003323B1144B4343124C2360B3
:1006C00003E0104B4343104C236003E00D4B0E4CF2
:1006D000236000BF00BF064B5B68C3F303130C4CE1
:1006E000E15C094B1B68CB40074C236010BD000048
:1006F00000100240002002400000FFF8FFFFF6FE5D
:1007000008ED00E000127A000000002000093D0022
:100710000400002008B50121242000F0B3FB4FF4B1
:100720008070ADF8000010208DF8030003208DF8D4
:10073000020069460C4800F0E9F84FF480710A485D
:1007400000F091F90420ADF8000010208DF80300AE
:1007500003208DF802006946044800F0D7F8042110
:10076000024800F080F908BD000801400014014073
:1007700031490143314A1160704770B500210023AF
:100780000F22C47804B32D4C246804F4E064C4F54B
:10079000E064210AC1F10403CA40447804FA03F179
:1007A0008478144021430901254C0678A15504782A
:1007B00004F01F050124AC4005786D11AD0005F172
:1007C000E025C5F8004109E0047804F01F05012484
:1007D000AC401C4D0678761145F8264070BD1A4A8B
:1007E0000A400243154B1B1F1A60704739B1134A68
:1007F000121D12680243114B1B1D1A6006E00F4ABE
:10080000121D126882430D4B1B1D1A60704704288D
:1008100008D14FF0E021096941F004014FF0E022D6
:10082000116107E04FF0E021096921F004014FF068
:10083000E0221161704700000000FA050CED00E0B5
:1008400000E400E080E100E080FFFF1F10B50446F7
:10085000CC48844208D10121042000F02DFB002166
:10086000042000F029FB46E0C748844208D101215A
:10087000082000F021FB0021082000F01DFB3AE0D9
:10088000C248844208D10121102000F015FB00214C
:10089000102000F011FB2EE0BD48844208D1012158
:1008A000202000F009FB0021202000F005FB22E0C1
:1008B000B848844208D10121402000F0FDFA00210F
:1008C000402000F0F9FA16E0B348844208D1012133
:1008D000802000F0F1FA0021802000F0EDFA0AE01B
:1008E000AE48844207D10121801500F0E5FA0021CD
:1008F000A01500F0E1FA10BD10B50121084600F086
:10090000DBFA0021012000F0D7FA10BD2DE9F041FB
:10091000024600250026002000230024002791F82D
:1009200003C00CF00F0591F803C00CF0100CBCF1E3
:10093000000F03D091F802C04CEA050591F800C001
:10094000BCF1000F31D0146800202BE04FF0010CF7
:100950000CFA00F3B1F800C00CEA03069E4220D165
:1009600083004FF00F0C0CFA03F7BC4305FA03FCAD
:100970004CEA040491F803C0BCF1280F06D14FF0F3
:10098000010C0CFA00FCC2F814C00AE091F803C094
:10099000BCF1480F05D14FF0010C0CFA00FCC2F875
:1009A00010C0401C0828D1D31460B1F800C0BCF1BD
:1009B000FF0F34DD546800202EE000F1080C4FF0EA
:1009C000010808FA0CF3B1F800C00CEA03069E42D5
:1009D00021D183004FF00F0C0CFA03F7BC4305FA4A
:1009E00003FC4CEA040491F803C0BCF1280F05D1C4
:1009F00000F1080C08FA0CF8C2F8148091F803C052
:100A0000BCF1480F07D100F1080C4FF0010808FABB
:100A10000CF8C2F81080401C0828CED35460BDE802
:100A2000F0814FF6FF710180022181700421C170B5
:100A300070470246002093680B400BB1012000E094
:100A4000002070470146886880B270470246002047
:100A5000D3680B400BB1012000E000207047014635
:100A6000C86880B2704701617047416170470AB140
:100A7000016100E041617047C16070474FF480320E
:100A80000A4382618161826182698269704702469C
:100A90000020434B18684FF68073184040EA02105C
:100AA00008433F4B186070473E49C8617047F0B536
:100AB0000A46002300240021002500F00046B6F17C
:100AC000004F02D1364EF16901E0354E7168C0F336
:100AD000034583B200F44016B6F5401F08D121F05B
:100AE00070612F4E766826F070662D4F7E6012E0A2
:100AF00000F48016B6F5801F06D1032606FA05F429
:100B0000A14341F0706106E0460D360103FA06F696
:100B1000B14341F0706122B1460D360103FA06F689
:100B2000314300F00046B6F1004F02D11C4EF16196
:100B300001E01B4E7160F0BD30B500228B071C0F29
:100B40000F2303FA04F2164B08338C1053F82430A9
:100B50009343134C08348D1044F8253023468C10F1
:100B600053F824308C07240F00FA04F423430C4C70
:100B700008348D1044F8253030BD0A49DC31086056
:100B80007047000000080140000C014000100140C7
:100B90000014014000180140001C014000200140E9
:100BA0000000014000002042DF48006840F00100E2
:100BB000DD49086008464068DC490840DA49486079
:100BC00008460068DA490840D749086008460068C6
:100BD00020F4802008600846406820F4FE00486049
:100BE0004FF41F0088607047CF49096821F48031B5
:100BF000CD4A11601146096821F480211160B0F5D9
:100C0000803F03D0B0F5802F0ED106E0C6490968B9
:100C100041F48031C44A116007E0C349096841F4D6
:100C2000A021C14A116000E000BF00BF704710B5AD
:100C300001460022002300204A11012A02D1BA4CA9
:100C4000236806E0022A02D1B74C236A01E0B64CC1
:100C5000636A01F01F02012494401C400CB1012082
:100C600000E0002010BD38B50020009000240025D1
:100C700000BF3120FFF7DBFF05460098401C0090C5
:100C80000098B0F5A06F01D0002DF2D03120FFF711
:100C9000CEFF08B1012400E00024204638BD014603
:100CA0000020A14A106820F0F80040EAC10010605E
:100CB0007047A04908607047024600209A4B586868
:100CC00020F47C1042EA01031843974B58607047A8
:100CD00098490866704701460020934A506820F002
:100CE00003000843506070478F48406800F00C00D4
:100CF0007047014600208C4A506820F0F0000843FD
:100D00005060704701460020874A506820F4E06038
:100D100008435060704701460020834A506820F421
:100D2000605040EAC1005060704729B17E4A527A53
:100D300002437D4B5A7204E07B4A527A82437A4BDB
:100D40005A7270477B49D8310860704701460020CD
:100D5000754A506820F440400843506070470021B5
:100D6000714A20321170704A82F82010012802D096
:100D700004280AD104E001216B4A2032117005E0F9
:100D80000521694A2032117000E000BF00BF7047A2
:100D90006949086070476449096A0143624A1162FF
:100DA0007047654944390860704730B5002100221A
:100DB000002400235C4D6D6805F00C0121B104296D
:100DC00005D0082923D105E05C4D056022E05B4D8C
:100DD00005601FE0544D6D6805F47012524D6D684A
:100DE00005F48034022505EB92421CB9544D55435D
:100DF00005600BE04C4D6D6805F400351DB1504D9C
:100E00005543056002E04D4D5543056002E04B4DF2
:100E1000056000BF00BF444D6D6805F0F001090991
:100E2000484D6B5C0568DD4045603F4D6D6805F4DD
:100E3000E061090A434D6B5C4568DD4085603A4DD1
:100E40006D6805F46051C90A3E4D6B5C4568DD4034
:100E5000C560354D6D6805F44041890B3A4D6B5CBA
:100E6000C568B5FBF3F5056130BD29B12E4A52695D
:100E700002432D4B5A6104E02B4A526982432A4BAC
:100E80005A61704729B1284A92690243264B9A61F8
:100E900004E0254A92698243234B9A61704729B145
:100EA000214AD2690243204BDA6104E01E4AD2692A
:100EB00082431D4BDA61704729B11B4AD268024355
:100EC000194BDA6004E0184AD2688243164BDA60A4
:100ED000704729B1144A12690243134B1A6104E0A6
:100EE000114A12698243104B1A6170471249403906
:100EF000086070470F49C86470470B49C871704754
:100F00000948406A40F080700749486270470146CE
:100F10000020054A92680A400AB1012000E0002042
:100F20007047014988727047001002400000FFF8C6
:100F3000FFFFF6FE000042428004424200127A00A7
:100F400000093D00140000202400002010B50446D4
:100F5000FE48844208D10121C014FFF7ADFF0021F3
:100F6000E014FFF7A9FFC4E0B4F1804F08D10121DC
:100F70000846FFF7AEFF00210120FFF7AAFFB8E007
:100F8000F348844208D101210220FFF7A2FF00218B
:100F90000220FFF79EFFACE0EE48844208D1012119
:100FA0000420FFF796FF00210420FFF792FFA0E046
:100FB000E948844208D101210820FFF78AFF002177
:100FC0000820FFF786FF94E0E448844208D101211D
:100FD0001020FFF77EFF00211020FFF77AFF88E046
:100FE000DF48844208D101212020FFF772FF002151
:100FF0002020FFF76EFF7CE0DA48844208D101210F
:101000004014FFF759FF00216014FFF755FF70E00F
:10101000D548844209D10121C804FFF74DFF0021C2
:101020004FF40020FFF748FF63E0D048844209D125
:1010300001210805FFF740FF00214FF48010FFF762
:101040003BFF56E0CA48844209D101214805FFF719
:1010500033FF00214FF40010FFF72EFF49E0C54891
:10106000844208D101214020FFF733FF00214020B6
:10107000FFF72FFF3DE0C048844208D101218020C6
:10108000FFF727FF00218020FFF723FF31E0BB4857
:10109000844208D101218015FFF71BFF0021A01514
:1010A000FFF717FF25E0B648844209D10121080463
:1010B000FFF702FF00214FF48030FFF7FDFE18E03C
:1010C000B048844209D101214804FFF7F5FE002110
:1010D0004FF40030FFF7F0FE0BE0AB48844208D13C
:1010E00001218804FFF7E8FE00214FF48020FFF77C
:1010F000E3FE10BD00220288944B98420ED0994B1B
:1011000098420BD0B0F1804F08D0914B984205D057
:10111000904B984202D0904B984204D14FF68F7377
:101120001A404B881A438D4B984207D08C4B9842FB
:1011300004D04FF6FF431A40CB881A4302808B88B5
:1011400083850B880385814B98420BD0854B984251
:1011500008D08B4B984205D08A4B984202D08A4BDC
:10116000984201D10B7A038601238382704770B5C0
:10117000002400220023058C4FF6FE7635400584BE
:10118000028C8388048B4FF68F752C40B51E2C4043
:101190000D882C43751E2A400D892A434D882A4309
:1011A0006A4DA8420BD06F4DA84208D0744DA8429A
:1011B00005D0744DA84202D0734DA84213D14FF60A
:1011C000F7752A404D892A434FF6FB752A408D88D2
:1011D0002A434FF6FF652B404FF6FF552B408D8974
:1011E0002B43CD892B4383800483CD88858602845D
:1011F00070BD70B5002400220023058C4FF6EF76F9
:1012000035400584028C8388048B48F6FF752C409A
:101210004FF6FF452C400D884FF6FF7606EA052570
:101220002C434FF6DF752A400D8906EA05152A433F
:101230004D8806EA05152A43444DA84202D0494D7F
:10124000A8421DD14FF67F752A404D894FF6FF7693
:1012500006EA05152A434FF6BF752A408D8806EA2F
:1012600005152A434FF6FF352B404FF2FF752B40F3
:101270008D8906EA85052B43CD8906EA85052B4332
:1012800083800483CD880587028470BD70B50024F7
:1012900000220023058C4FF6FF6635400584028C42
:1012A0008388848B4FF68F752C404FF6FC752C404D
:1012B0000D882C434FF6FF552A400D894FF6FF76D7
:1012C00006EA05252A434D8806EA05252A431F4DCF
:1012D000A84202D0234DA8421DD14FF2FF752A40EB
:1012E0004D894FF6FF7606EA05252A434FF6FF356E
:1012F0002A408D8806EA05252A434EF6FF752B40C5
:101300004DF6FF752B408D8906EA05152B43CD89D7
:1013100006EA05152B4383808483CD888587028464
:1013200070BD70B5002200230024058C4EF6FF76B8
:1013300035400584038C8488828B48F6FF752A40EB
:101340004FF6FF452A400D8820E00000002C0140A8
:101350000004004000080040000C00400010004065
:101360000014004000340140004C01400050014096
:101370000054014000180040001C004000200040C4
:101380000040014000440140004801404FF6FF7614
:1013900006EA05252A434DF6FF752B400D8906EA1E
:1013A00005352B434D8806EA05352B43FA4DA842F7
:1013B00002D0FA4DA84208D14BF6FF752C408D891A
:1013C0004FF6FF7606EA85152C4384808283CD880C
:1013D000A0F84050038470BD828B4FF2FF331A4057
:1013E0008283828B4FF6FF7303EA01231A438283C1
:1013F0007047F0B50C461546002200210026078CE8
:101400004EF6FF7C07EA0C070784828B018C4FF6AF
:10141000FF7707EA043640F6FF473A404FF6FF777A
:1014200007EA05273A434FF6FF7707EA03373A43BF
:10143000D94FB8420ED0D94FB8420BD0B0F1804F3F
:1014400008D0D74FB84205D0D64FB84202D0D64FB9
:10145000B84206D14DF6FF77394046F480573943FC
:1014600005E047F6FF57394044F4805739438283FB
:101470000184F0BD828B4FF6F3731A408283828B16
:101480000A4382837047F0B50C46154600220021BE
:101490000026078C4FF6FF6C07EA0C070784828B47
:1014A000018C4FF6FF7707EA04264FF60C773A4097
:1014B0004FF6FF7707EA03172F433A43B64FB84278
:1014C0000ED0B64FB8420BD0B0F1804F08D0B44F19
:1014D000B84205D0B34FB84202D0B34FB84206D19C
:1014E0004FF6FF57394046F48077394305E04FF215
:1014F000FF57394044F48077394382830184F0BD3B
:10150000028B4FF2FF331A400283028B4FF6FF73B8
:1015100003EA01231A4302837047F0B50C461546CF
:10152000002200210026078C4FF6EF7C07EA0C070B
:101530000784028B018C4FF6FF7707EA041640F60A
:10154000FF473A404FF6FF7707EA03373A434FF633
:10155000FF7707EA05273A438F4FB8420ED08F4FE7
:10156000B8420BD0B0F1804F08D08D4FB84205D0B3
:101570008C4FB84202D08C4FB84206D14FF6DF777D
:10158000394046F01007394305E04FF65F773940A0
:1015900044F01007394302830184F0BD028B4FF6FB
:1015A000F3731A400283028B0A4302837047F0B53B
:1015B0000C46154600220021068C4FF6FE773E4071
:1015C0000684028B018C4FF60C7632407E1C06EAB4
:1015D00003162E433243704EB0420ED06F4EB042CF
:1015E0000BD0B0F1804F08D06D4EB04205D06D4E9B
:1015F000B04202D06C4EB04206D14FF6FD7631407B
:1016000044F00106314305E04FF6F576314044F0F1
:101610000106314302830184F0BD70B505460C46D6
:101620005D4885420ED05D4885420BD0B5F1804FB4
:1016300008D05B48854205D05A48854202D05A48B6
:10164000854200D100E000BF208850B92389A288DC
:1016500061882846FFF7ABFFE1882846FFF79EFF29
:1016600025E0208804280AD12389A2886188284699
:10167000FFF753FFE1882846FFF742FF17E0208875
:1016800008280AD12389A28861882846FFF7FBFE33
:10169000E1882846FFF7EEFE09E02389A2886188E9
:1016A0002846FFF7A6FEE1882846FFF795FE70BDA5
:1016B0002DE9F04105460C4600260127608808B94F
:1016C000022600E00026A088012801D1022700E0C0
:1016D00001272088A0B92389A28861882846FFF7BE
:1016E00066FFE1882846FFF759FF23893A463146CD
:1016F0002846FFF712FFE1882846FFF701FF13E0B5
:101700002389A28861882846FFF707FFE1882846D9
:10171000FFF7F6FE23893A4631462846FFF747FF92
:10172000E1882846FFF73AFFBDE8F0810A884B8838
:101730001A438B881A43CB881A430B891A434B8967
:101740001A438B891A43A0F8442070474FF6FF7163
:10175000818000210180C180418001727047002199
:10176000018041808180C180018141818181C1816D
:101770007047002101804180012181800021C180CA
:10178000018170470021018041808180C1800181F9
:101790004181818170470000002C014000340140EC
:1017A0000004004000080040000C004021B1028805
:1017B00042F00102028004E002884FF6FE731A40F4
:1017C0000280704731B1B0F8442042F40042A0F8E2
:1017D000442005E0B0F84420C2F30E02A0F84420F3
:1017E00070471AB183890B43838102E083898B435D
:1017F000838170478182704741EA0203A0F8483034
:1018000070471AB183890B43838102E083898B433C
:101810008381704701894FF6F8721140018170474A
:101820000A46002101894FF68F7319401143018147
:10183000704730B504460D4629462046FFF7F0FFB5
:10184000208940F00700208130BD2DE9F041044699
:101850000D4616461F46602D06D13B4601223146F5
:101860002046FFF75AFE05E03B460122314620465E
:10187000FFF79DFE29462046FFF7D2FF208940F062
:1018800007002081BDE8F08130B50C4600210189B8
:10189000C9B24FF6FF7505EA0325154325432943D1
:1018A000018130BD2DE9F04105460E4617469846A8
:1018B000002443463A4631462846FFF7E5FF2C8987
:1018C0004FF6F870044044F007044FF68F70044060
:1018D00044F070042C81BDE8F081F0B504460D465B
:1018E00016461F463B46324629462046FFF7CCFFA8
:1018F000208940F480402081F0BD018582827047BC
:101900000A46002101884FF68F7319401143018068
:101910007047F0B50C4615461E46002100220023F4
:101920000189028B038C4FF6F877394021434FF63B
:10193000FC473A4040F201173A434FF6DD773B400F
:101940004FF6FF7707EA06172F433B4301810283D7
:101950000384F0BD0A460021018B4FF68F731940B6
:101960001143018370470A460021018B48F6FF733B
:1019700019404FF6FF7303EA0223194301837047AE
:101980000A460021818B4FF68F73194011438183E2
:1019900070470A460021818B48F6FF7319404FF6C5
:1019A000FF7303EA022319438183704721B1028840
:1019B00042F08002028004E002884FF67F731A40F2
:1019C0000280704721B1828842F00402828004E0E4
:1019D00082884FF6FB731A408280704721B182885B
:1019E00042F00802828004E082884FF6F7731A40C2
:1019F0008280704721B1828842F00102828004E037
:101A000082884FF6FE731A40828070470A46002192
:101A1000018B4FF6F77319401143018370470A4653
:101A20000021018B4FF2FF7319404FF6FF7303EA59
:101A300002231943018370470A460021818B4FF628
:101A4000F77319401143818370470A460021818B47
:101A50004FF2FF7319404FF6FF7303EA0223194355
:101A6000818370470A460021018B4FF6FB731940B2
:101A70001143018370470A460021018B4FF6FF3363
:101A800019404FF6FF7303EA02231943018370479D
:101A90000A460021818B4FF6FB7319401143818365
:101AA00070470A460021818B4FF6FF3319404FF6ED
:101AB000FF7303EA02231943818370470A4600211A
:101AC000018B4FF67F7319401143018370470A461B
:101AD0000021018BC1F30E014FF6FF7303EA0223CD
:101AE0001943018370470A460021818B4FF67F73AB
:101AF00019401143818370470A460021818BC1F34D
:101B00000E014FF6FF7303EA0223194381837047E6
:101B10000A460021018C4FF6FD73194011430184E0
:101B200070470A460021018C4FF6F77319401143A4
:101B3000018470470A460021018C4FF6DF7319407B
:101B40004FF6FF7303EA02131943018470470A46F4
:101B50000021018C4FF67F7319404FF6FF7303EAA3
:101B600002131943018470470A460021018C4FF685
:101B7000FF5319404FF6FF7303EA02231943018410
:101B800070470A460021018C4FF2FF7319404FF64F
:101B9000FF7303EA02231943018470470A460021B8
:101BA000018C4DF6FF7319404FF6FF7303EA0233C1
:101BB00019430184704730B5002301248C40A3B23F
:101BC000048C9C430484048C02FA01F5ADB22C43CE
:101BD000048430BD30B5002304248C40A3B2048CAF
:101BE0009C430484048C02FA01F5ADB22C430484B6
:101BF00030BD70B50346002000241846183001257A
:101C00008D40ACB21D8CA5431D8409B1082909D1B2
:101C100000EB6100056825F0700505600568154357
:101C200005600EE00D1FC5F34E052844056825F438
:101C3000E045056005684FF6FF7606EA0226354363
:101C4000056070BD21B1028842F00202028004E00A
:101C500002884FF6FD731A400280704721B1028856
:101C600042F00402028004E002884FF6FB731A403F
:101C70000280704721B1828842F08002828004E0B5
:101C800082884FF67F731A408280704702884FF631
:101C9000F7731A40028002880A43028070478288E4
:101CA0004FF68F731A40828082880A438280704781
:101CB00002894FF6F8731A40028102890A430281B1
:101CC000704702894FF67F731A40028102890A43E6
:101CD0000281704781847047818570478186704793
:101CE0000187704781877047A0F8401070470288CD
:101CF0004FF6FF431A40028002880A430280704771
:101D00000146888E70470146088F70470146888FCC
:101D100070470146B1F8400070470146888C704713
:101D20000146088D704702460020138A0B400BB114
:101D3000012000E000207047CA430282704730B59E
:101D40000246002000230024158A05EA0103958934
:101D500005EA010413B10CB1012000E0002030BD00
:101D6000CA4302827047000010B504464FF48071E8
:101D7000FE48FEF77AFE4FF40071FC48FEF775FE50
:101D80002146FB48FEF778FE8021F848FEF76DFEFD
:101D90008021F648FEF767FE4FF40071F348FEF726
:101DA00062FE10BD10B504464FF48071EF48FEF797
:101DB0005AFE4FF40071ED48FEF757FE2146EC48FD
:101DC000FEF75AFE8021E948FEF74FFE8021E748E2
:101DD000FEF749FE4FF40071E448FEF744FE10BDE3
:101DE00010B54FF08830E2490860091D08600020F6
:101DF000DF490C3108608915DC48FEF734FE4FF4EA
:101E00000071DA48FEF731FE4021D848FEF72DFE7A
:101E1000D848808848F68911884202D1012001F013
:101E2000C9FFD348FEF70EFE04464021CF48FEF717
:101E30001AFE4FF40071CD48FEF715FE4FF0333017
:101E4000CB490860091D08604FF6FF70C8490C3186
:101E50000860204610BD70B504460D462046FFF7C9
:101E600083FF4FF48071C148FEF7FDFD4FF4007110
:101E7000BE48FEF7FAFD2946BD48FEF7FDFD80216C
:101E8000BA48FEF7F2FD8021B848FEF7ECFD4FF4AA
:101E90000071B648FEF7E7FD70BD10B50446204658
:101EA000FFF762FFFFF79CFF10BD10B5B14908892D
:101EB000FFF75AFF10BD10B504464FF48071AB48D0
:101EC000FEF7D1FD4FF40071A848FEF7CEFD214684
:101ED000A748FEF7D1FD8021A448FEF7C6FD80216A
:101EE000A248FEF7C0FD4FF40071A048FEF7BBFD0D
:101EF00010BD30B5014601F01F04C1F34513CA0AF5
:101F0000E50205EB43151544A8B230BD70B5044693
:101F10000D469848808849F24131884205D095485D
:101F2000808845F21031884275D192494889FFF77F
:101F30001BFF4FF480718D48FEF795FD4FF4007143
:101F40008A48FEF792FD21128948FEF795FD80210F
:101F50008648FEF78AFD80218448FEF784FD4FF411
:101F600000718248FEF77FFD4FF480717F48FEF7D5
:101F70007AFD4FF400717D48FEF777FDE1B27C48B1
:101F8000FEF77AFD80217948FEF76FFD80217748C2
:101F9000FEF769FD4FF400717448FEF764FD754962
:101FA0008889FFF7E1FE4FF480717048FEF75BFD12
:101FB0004FF400716D48FEF758FD29126C48FEF78A
:101FC0005BFD80216948FEF750FD80216748FEF7E0
:101FD0004AFD4FF400716548FEF745FD4FF48071EE
:101FE0006248FEF740FD4FF400716048FEF73DFD8A
:101FF000E9B25F48FEF740FD80215C48FEF735FD01
:1020000080215A48FEF72FFD4FF400715748FEF724
:102010002AFD28E1FFE75748808846F604018842F8
:102020007ED154488079012804D152480088401E4E
:10203000001B84B24F494889FFF796FE4FF4807128
:102040004A48FEF710FD4FF400714848FEF70DFDB9
:1020500021124748FEF710FD80214448FEF705FD98
:1020600080214248FEF7FFFC4FF400713F48FEF725
:10207000FAFC4FF480713D48FEF7F5FC4FF4007117
:102080003A48FEF7F2FCE1B23948FEF7F5FC802150
:102090003648FEF7EAFC80213448FEF7E4FC4FF4B2
:1020A00000713248FEF7DFFC32498889FFF75CFE99
:1020B0004FF480712D48FEF7D6FC4FF400712B4889
:1020C000FEF7D3FC29122A48FEF7D6FC80212748C8
:1020D000FEF7CBFC80212548FEF7C5FC4FF40071CC
:1020E0002248FEF7C0FC4FF480712048FEF7BBFC8D
:1020F0004FF400711D48FEF7B8FCE9B21C48FEF72A
:10210000BBFC80211948FEF7B0FC80211748FEF780
:10211000AAFC4FF400711548FEF7A5FCA3E0FFE709
:102120001448808845F2105188427CD11149488971
:10213000FFF71AFE4FF480710C48FEF794FC4FF441
:1021400000710A48FEF791FC21120948FEF794FC41
:1021500080210648FEF789FC80210448FEF783FCB5
:102160004FF400710148FEF77EFC05E000100140CD
:10217000000C014038000020F9494989491C88B207
:10218000FFF7F2FD4FF48071F648FEF76CFC4FF458
:102190000071F448FEF769FCE1B2F348FEF76CFC0D
:1021A0008021F048FEF761FC8021EE48FEF75BFCE1
:1021B0004FF40071EB48FEF756FCE9498889FFF7B8
:1021C000D3FD4FF48071E748FEF74DFC4FF40071EA
:1021D000E448FEF74AFC2912E348FEF74DFC802153
:1021E000E048FEF742FC8021DE48FEF73CFC4FF45D
:1021F0000071DC48FEF737FCD9498989491C88B24F
:10220000FFF7B2FD4FF48071D648FEF72CFC4FF477
:102210000071D448FEF729FCE9B2D348FEF72CFC44
:102220008021D04800E00BE0FEF71FFC8021CD4864
:10223000FEF719FC4FF40071CA48FEF714FC12E0D7
:10224000C7488079012804D1C5480088401E001B7A
:1022500084B2C34948892146FFF7FDFDC0498889FA
:102260002946FFF7F8FD70BD2DE9F04105460E4601
:10227000BB480088A84203DDB9484088B04202DC70
:102280000020BDE8F08131462846FFF73FFEB44804
:10229000808849F2413188420BD0B148808846F6A7
:1022A0000401884205D0AE48808845F2103188424A
:1022B00003D12E20FFF758FD0DE0A948808845F294
:1022C0001051884204D14FF43850FFF74DFD02E021
:1022D0002220FFF749FD4FF08830A3490860091D0F
:1022E00008604FF6FF70A0490C31086089159D48C1
:1022F000FEF7B9FB4FF400719A48FEF7B6FB402198
:102300009848FEF7B2FB012001F054FD40219548AA
:10231000FEF7A9FB40219348FEF7A7FB012001F03F
:1023200049FD9148FEF78EFB044640218D48FEF79B
:102330009AFB8B48808849F2413188420BD088480B
:10234000808845F21031884205D08548808845F262
:102350001051884211D140218248FEF786FB824805
:10236000FEF770FB804640217E48FEF77CFBE7B21B
:102370004FF6FF7000EA072711E07948808846F69B
:10238000040188420BD140217648FEF76EFB4021C4
:102390007448FEF768FB7448FEF754FB04464FF49C
:1023A00000717048FEF75FFB4FF033306E490860F4
:1023B000091D08604FF6FF706B490C3108606848D2
:1023C000808849F22531884216D06548808844F2D9
:1023D0003551884210D062488088091F88420BD04E
:1023E0005F48808848F68911884205D05C4880881B
:1023F0004BF20551884201D1204642E75848808877
:1024000049F2413188420BD05548808845F210315D
:10241000884205D05248808845F21051884207D141
:10242000E012C002B91240EA411040EAE82028E771
:102430002046FFF75EFD24E710B54948808849F241
:10244000413188420BD04648808846F604018842D4
:1024500005D04348808845F21031884203D12920B5
:10246000FFF782FC0FE03E48808845F21051884219
:1024700004D14FF42450FFF777FC04E040F27311CD
:102480000720FFF7E8FC10BD10B53548808849F2F9
:10249000413188420BD03248808846F60401884298
:1024A00005D02F48808845F21031884203D128207A
:1024B000FFF75AFC0EE02A48808845F21051884206
:1024C00004D14FF42050FFF74FFC03E00021072018
:1024D000FFF7C1FC10BD2DE9F0410546002400279F
:1024E0001F48807901281FD11D48808846F60401C5
:1024F000884219D0082D15D2DFE805F00406080A35
:102500000C0E101206250EE007250CE004250AE04B
:10251000052508E0012506E0002504E0032502E08A
:10252000022500E000BF00BF0D48808849F241311C
:10253000884211D00A48808846F6040188420BD0B0
:102540000748808845F21031884205D004488088C9
:1025500045F2105188427DD1082D24D206E00000BA
:102560003800002000100140000C0140DFE805F0B9
:102570000406090C0F12151800BF15E044F0800482
:1025800012E044F040040FE044F0C0040CE044F0DA
:10259000200409E044F0600406E044F0A00403E0F5
:1025A00044F0E00400E000BF00BFFE48808845F230
:1025B0001051884202D14FF4585700E03627F948AD
:1025C000808845F21031884207D0F648808845F26D
:1025D0001051884201D044F00804F248808846F641
:1025E0000401884201D144F0020421463846FFF735
:1025F00032FC04F0200068B1EA480088E9494988C3
:10260000884214DAE74806884088E6490880084688
:1026100046800CE0E3480088E2494988884206DDAC
:10262000E04806884088DF49088008464680DD4843
:10263000808845F2105188427ED1DA494889FFF7F7
:1026400093FB4FF48071D848FEF70DFA4FF40071F8
:10265000D54800E0FEE1FEF708FA0021D348FEF776
:102660000BFA8021D048FEF700FA8021CE48FEF711
:10267000FAF94FF40071CC48FEF7F5F9C9494989D8
:10268000491C88B2FFF770FB4FF48071C648FEF713
:10269000EAF94FF40071C448FEF7E7F90021C34896
:1026A000FEF7EAF98021C048FEF7DFF98021BE4835
:1026B000FEF7D9F94FF40071BB48FEF7D4F9B949D8
:1026C0004989891C88B2FFF74FFB4FF48071B648E7
:1026D000FEF7C9F94FF40071B348FEF7C6F9B148E7
:1026E0000088401EC0F30F21B048FEF7C5F98021D5
:1026F000AD48FEF7BAF98021AB48FEF7B4F94FF4C4
:102700000071A948FEF7AFF9A6494989C91C88B2EA
:10271000FFF72AFB4FF48071A348FEF7A4F94FF4AA
:102720000071A148FEF7A1F99E480078401EC1B291
:102730009E48FEF7A1F900E096E080219A48FEF756
:1027400094F980219848FEF78EF94FF4007196486D
:10275000FEF789F993498889FFF706FB4FF48071EA
:102760009148FEF780F94FF400718F48FEF77DF92C
:1027700000218E48FEF780F980218B48FEF775F91D
:1027800080218948FEF76FF94FF400718648FEF703
:102790006AF984498989491C88B2FFF7E5FA4FF440
:1027A00080718148FEF75FF94FF400717E48FEF7B3
:1027B0005CF900217D48FEF75FF980217A48FEF739
:1027C00054F980217848FEF74EF94FF400717648AD
:1027D000FEF749F973498989891C88B2FFF7C4FA61
:1027E0004FF480717048FEF73EF94FF400716E4867
:1027F000FEF73BF96B484088401EC0F30F216B4841
:10280000FEF73AF980216848FEF72FF980216648E3
:10281000FEF729F94FF400716348FEF724F9614986
:102820008989C91C88B2FFF79FFA4FF480715E480E
:10283000FEF719F94FF400715B48FEF716F9594895
:102840008078401EC1B25948FEF716F980215648DB
:10285000FEF70BF980215448FEF705F94FF400719B
:102860005148FEF700F928E14E494889FFF77CFA04
:102870004FF480714C48FEF7F6F84FF400714A4867
:10288000FEF7F3F800214948FEF7F6F880214648A4
:10289000FEF7EBF880214448FEF7E5F84FF40071AD
:1028A0004148FEF7E0F84FF480713F48FEF7DBF84F
:1028B0004FF400713C48FEF7D8F800213B48FEF782
:1028C000DBF880213848FEF7D0F880213648FEF743
:1028D000CAF84FF400713448FEF7C5F84FF4807120
:1028E0003148FEF7C0F84FF400712F48FEF7BDF8ED
:1028F0002C480088401EC0F30F212C48FEF7BCF87E
:1029000080212948FEF7B1F880212748FEF7ABF86F
:102910004FF400712448FEF7A6F84FF48071224866
:10292000FEF7A1F84FF400711F48FEF79EF81D480E
:102930000078401EC1B21D48FEF79EF880211A485B
:10294000FEF793F880211848FEF78DF84FF40071D8
:102950001548FEF788F813498889FFF705FA4FF400
:1029600080711148FEF77FF84FF400710E48FEF7B2
:102970007CF800210D48FEF77FF880210A48FEF719
:1029800074F880210848FEF76EF84FF4007106488D
:10299000FEF769F84FF480710348FEF764F84FF4CE
:1029A000007105E03800002000100140000C0140DB
:1029B000FE48FEF75AF80021FD48FEF75DF8802139
:1029C000FA48FEF752F88021F848FEF74CF84FF429
:1029D0000071F648FEF747F84FF48071F348FEF7B0
:1029E00042F84FF40071F148FEF73FF8F148408893
:1029F000401EC0F30F21EE48FEF73EF88021EB4861
:102A0000FEF733F88021E948FEF72DF84FF4007106
:102A1000E648FEF728F84FF48071E448FEF723F803
:102A20004FF40071E148FEF720F8E2488078401E3C
:102A3000C1B2DF48FEF720F88021DC48FEF715F828
:102A40008021DA48FEF70FF84FF40071D748FEF7FF
:102A50000AF832E0082D1CD2DFE805F004070A0D61
:102A60000F12151844F0300414E044F0100411E083
:102A700044F020040EE000BF0CE044F0380409E00C
:102A800044F0280406E044F0180403E044F008048D
:102A900000E000BF00BFC748808848F6891188421F
:102AA00004D1112746F24000044302E0032744F416
:102AB000805421463846FFF7CEF9BDE8F08170B565
:102AC00004460D4629462046FFF720FAFFF7EDF9A8
:102AD0004FF48071B548FDF7C6FF4FF40071B3485D
:102AE000FDF7C3FFB4480188B148FDF7C5FF802159
:102AF000AE48FDF7BAFF8021AC48FDF7B4FF4FF4B4
:102B00000071AA48FDF7AFFF70BD70B504460D46D1
:102B10001646A848808849F24131884205D0A54828
:102B2000808845F21031884275D1A2494889FFF763
:102B30001BF94FF480719D48FDF795FF4FF400712C
:102B40009A48FDF792FF21129948FDF795FF8021E1
:102B50009648FDF78AFF80219448FDF784FF4FF4E3
:102B600000719248FDF77FFF4FF480718F48FDF7A9
:102B70007AFF4FF400718D48FDF777FFE1B28C4882
:102B8000FDF77AFF80218948FDF76FFF8021874894
:102B9000FDF769FF4FF400718448FDF764FF854934
:102BA0008889FFF7E1F84FF480718048FDF75BFFFB
:102BB0004FF400717D48FDF758FF29127C48FDF75E
:102BC0005BFF80217948FDF750FF80217748FDF7B2
:102BD0004AFF4FF400717548FDF745FF4FF48071CF
:102BE0007248FDF740FF4FF400717048FDF73DFF5C
:102BF000E9B26F48FDF740FF80216C48FDF735FFD3
:102C000080216A48FDF72FFF4FF400716748FDF7F8
:102C10002AFF2BE1FFE76748808845F21051884280
:102C20007ED164494889FFF79FF84FF480715F486F
:102C3000FDF719FF4FF400715C48FDF716FF2112F4
:102C40005B48FDF719FF80215848FDF70EFF8021F2
:102C50005648FDF708FF4FF400715448FDF703FF95
:102C600054494989491C88B2FFF77EF84FF48071B6
:102C70004E48FDF7F8FE4FF400714C48FDF7F5FEA5
:102C8000E1B24B48FDF7F8FE80214848FDF7EDFE24
:102C900080214648FDF7E7FE4FF400714348FDF7F9
:102CA000E2FE44498889FFF75FF84FF480713F489E
:102CB000FDF7D9FE4FF400713C48FDF7D6FE29120E
:102CC0003B48FDF7D9FE80213848FDF7CEFE802134
:102CD0003648FDF7C8FE4FF400713448FDF7C3FED7
:102CE00034498989491C88B2FFF73EF84FF4807156
:102CF0002E48FDF7B8FE4FF400712C48FDF7B5FEE5
:102D0000E9B22B48FDF7B8FE80212848FDF7ADFE5B
:102D100080212648FDF7A7FE4FF40071234800E00C
:102D200002E0FDF7A0FEA1E02248808846F60401FB
:102D300088427DD11F488079012804D11D48008830
:102D4000401E001B84B21B494889FFF70DF84FF461
:102D500080711648FDF787FE4FF400711348FDF7A8
:102D600084FE21121248FDF787FE80210F48FDF7EF
:102D70007CFE80210D48FDF776FE4FF400710B4874
:102D8000FDF771FE4FF480710848FDF76CFE4FF4BB
:102D900000710648FDF769FEE1B20548FDF76CFEDB
:102DA00080210248FDF761FE802107E0001001400C
:102DB000000C01403800002028000020FE48FDF7EC
:102DC00052FE4FF40071FC48FDF74DFEFB49888927
:102DD000FEF7CAFF4FF48071F748FDF744FE4FF449
:102DE0000071F548FDF741FE2912F548FDF744FE54
:102DF0008021F148FDF739FE8021EF48FDF733FED1
:102E00004FF40071EC48FDF72EFE4FF48071EA4854
:102E1000FDF729FE4FF40071E748FDF726FEE9B201
:102E2000E748FDF729FE8021E348FDF71EFE00E09C
:102E300009E08021E048FDF716FE4FF40071DE48FE
:102E4000FDF711FE12E0DD488079012804D1DB484E
:102E50000088401E001B84B2D84948892146FEF7ED
:102E6000FAFFD64988892946FEF7F5FF4FF48071AD
:102E7000D148FDF7FAFD4FF40071CF48FDF7F5FD9D
:102E8000CE480189CE48FDF7F7FD8021CA48FDF7FD
:102E9000ECFD8021C848FDF7E6FD4FF40071C648FF
:102EA000FDF7E1FD4FF48071C348FDF7DCFD4FF401
:102EB0000071C148FDF7D9FD3146C148FDF7DCFD81
:102EC0008021BD48FDF7D1FD8021BB48FDF7CBFD3A
:102ED0004FF40071B848FDF7C6FD70BD10B504464B
:102EE000002C60D1B5498871F02008804FF4A070A3
:102EF00048800846808849F2413188420BD0AF486B
:102F0000808846F60401884205D0AC48808845F2A6
:102F1000103188421AD12C20A84908812A204881E2
:102F20002B2088810846808846F60401884205D017
:102F3000A248808845F21031884206D14FF4A07033
:102F40009E4908804FF4F070488095E09B48808847
:102F500048F68911884207D12220984908814E20DD
:102F600048814F20888187E09448808845F210513D
:102F7000884210D14FF43050904908814FF42850C6
:102F800048814FF42C5088814FF4F07008804FF442
:102F90004870488070E022208849088120204881BC
:102FA0002120888168E00120844988714FF4A07055
:102FB0000880F02048800846808849F241318842E4
:102FC00005D07E48808845F21031884207D12C20F8
:102FD0007A4908812A2048812B20888139E0774866
:102FE000808846F60401884207D12C207349088165
:102FF0002B2048812A2088812BE07048808848F661
:103000008911884207D122206C4908814F204881CC
:103010004E2088811DE06948808845F21051884221
:1030200010D14FF43050654908814FF42850488141
:103030004FF42C5088814FF4487008804FF4F070A2
:10304000488006E022205D49088121204881202017
:1030500088815A48808846F60401884205D057483E
:10306000808845F21031884206D14FF4F070534900
:1030700008804FF4A07048800020FFF72CFA10BDA4
:103080002DE9FF5F04460D4616461F46A019401E57
:1030900086B2E819401E87B24848808849F241311B
:1030A00088420BD04548808845F21031884205D0CF
:1030B0004248808846F6040188427BD13F494889CE
:1030C000FEF752FE4FF480713B48FDF7CCFC4FF405
:1030D00000713948FDF7C9FC21123948FDF7CCFCD5
:1030E00080213548FDF7C1FC80213348FDF7BBFC4A
:1030F0004FF400713048FDF7B6FC4FF480712E4854
:10310000FDF7B1FC4FF400712B48FDF7AEFCE1B2C6
:103110002B48FDF7B1FC80212748FDF7A6FC802154
:103120002548FDF7A0FC4FF400712348FDF79BFCF8
:103130004FF480712048FDF796FC4FF400711E4853
:10314000FDF793FC31121E48FDF796FC80211A48CA
:10315000FDF78BFC80211848FDF785FC4FF40071CA
:103160001548FDF780FC4FF480711348FDF77BFC98
:103170004FF400711048FDF778FCF1B21048FDF7EC
:103180007BFC80210C48FDF770FC80210A48FDF78C
:103190006AFC4FF400710848FDF765FC074988890F
:1031A000FEF7E2FD4FF480710348FDF75CFC4FF43D
:1031B000007107E06CE000000010014038000020C2
:1031C000000C0140FE48FDF750FC2912FD48FDF7B8
:1031D00053FC8021FA48FDF748FC8021F848FDF7B0
:1031E00042FC4FF40071F648FDF73DFC4FF480714E
:1031F000F348FDF738FC4FF40071F148FDF735FC5A
:10320000E9B2F048FDF738FC8021ED48FDF72DFCD0
:103210008021EB48FDF727FC4FF40071E848FDF7EB
:1032200022FC4FF48071E648FDF71DFC4FF400715D
:10323000E348FDF71AFC3912E248FDF71DFC802136
:10324000DF48FDF712FC8021DD48FDF70CFC4FF450
:103250000071DB48FDF707FC4FF48071D848FDF79B
:1032600002FC4FF40071D648FDF7FFFBF9B2D548D8
:10327000FDF702FC8021D248FDF7F7FB8021D04802
:10328000FDF7F1FB4FF40071CD48FDF7ECFB53E186
:10329000CD48808845F2105188427DD1CA4948897D
:1032A000FEF762FD4FF48071C548FDF7DCFB4FF47B
:1032B0000071C348FDF7D9FB2112C248FDF7DCFBC2
:1032C0008021BF48FDF7D1FB8021BD48FDF7CBFB36
:1032D0004FF40071BA48FDF7C6FBBB494989491C48
:1032E00088B2FEF741FD4FF48071B548FDF7BBFB96
:1032F0004FF40071B248FDF7B8FBE1B2B148FDF7F9
:10330000BBFB8021AE48FDF7B0FB8021AC48FDF748
:10331000AAFB4FF40071AA48FDF7A5FBAA49498909
:10332000891C88B2FEF720FD4FF48071A448FDF798
:103330009AFB4FF40071A248FDF797FB3112A148A8
:10334000FDF79AFB80219E48FDF78FFB80219C486A
:10335000FDF789FB4FF400719948FDF784FB9A490A
:103360004989C91C88B2FEF7FFFC4FF4807194486C
:10337000FDF779FB4FF400719148FDF776FBF1B250
:103380009048FDF779FB80218D48FDF76EFB802189
:103390008B48FDF768FB00E087E04FF40071884838
:1033A000FDF761FB88498889FEF7DEFC4FF48071E8
:1033B0008348FDF758FB4FF400718148FDF755FB3A
:1033C00029128048FDF758FB80217D48FDF74DFB11
:1033D00080217B48FDF747FB4FF400717848FDF7EB
:1033E00042FB79498989491C88B2FEF7BDFC4FF43C
:1033F00080717348FDF737FB4FF400717048FDF79B
:1034000034FBE9B26F48FDF737FB80216C48FDF7CC
:103410002CFB80216A48FDF726FB4FF400716848B9
:10342000FDF721FB68498989891C88B2FEF79CFC5D
:103430004FF480716248FDF716FB4FF4007160484D
:10344000FDF713FB39125F48FDF716FB80215C483E
:10345000FDF70BFB80215A48FDF705FB4FF4007187
:103460005748FDF700FB58498989C91C88B2FEF707
:103470007BFC4FF480715248FDF7F5FA4FF4007170
:103480004F48FDF7F2FAF9B24E48FDF7F5FA802100
:103490004B48FDF7EAFA80214948FDF7E4FA4FF47A
:1034A00000714748FDF7DFFA46E047488079012878
:1034B0000ED1A846B94644480088801B401E80B201
:1034C000009041480088001B401E1FFA80FB03E06B
:1034D000A046B1460095BB463B48808848F6891116
:1034E00088420DD14FF0440A4420039048EA092055
:1034F0001FFA80F8C146452002904620019007E05F
:103500004FF0500A51200390522002905320019016
:1035100041465046FEF79FFC49460398FEF79BFC48
:1035200000990298FEF797FC59460198FEF793FC24
:1035300029462046FEF7EAFCBDE8FF9F70B5044629
:10354000002621480588408845431F48808846F664
:103550000401884216D11C488079012812D100202C
:10356000194988712A2048812B208881002108462A
:10357000FEF7CCFC0120144988712B2048812A20B9
:10358000888103E000210846FEF7C0FCFEF78DFCB1
:10359000002623E04FF480710948FDF764FA4FF4E8
:1035A00000710748FDF761FA21460648FDF764FA05
:1035B00080210348FDF759FA8021014806E0000008
:1035C00000100140000C014038000020FDF74BFACC
:1035D0004FF40071FE48FDF746FA761CAE42D9D38F
:1035E00070BD08B501211920FDF74CFC0121F948F7
:1035F000FDF75DFA4FF4F860ADF8000010208DF88B
:10360000030003208DF802006946F148FDF77EF9BA
:103610004FF4F861EE48FDF726FA4FF6FF70ADF86B
:1036200000006946EC48FDF771F94FF6FF71EA4872
:10363000FDF719FA01210020FEF70DFC0020FEF72E
:103640002CFCE649888008468088FF280ADB08466B
:1036500080884FF6FF71884204D0E0488088B0F53A
:10366000134F3BD1D320FEF77FFBFEF7B9FBFEF7EC
:10367000B7FBFEF7B5FBD9498880084680884FF62E
:10368000FF7101EA0020D5498880FEF7A9FBD349E4
:1036900089880843D14988800846808849F24131A9
:1036A00088421BD0BF20FEF75FFBFEF799FBFEF7B9
:1036B00097FBFEF795FBFEF793FBC8498880084609
:1036C00080884FF6FF7101EA0020C4498880FEF728
:1036D00087FBC24989880843C0498880BF488088E1
:1036E00049F2413188427CD1CF20FEF73DFB0020DA
:1036F000FEF758FBC120FEF755FB3020FEF752FBCA
:10370000ED20FEF731FB6420FEF74CFB0320FEF7B3
:1037100049FB1220FEF746FB8120FEF743FBE82021
:10372000FEF722FB8520FEF73DFB1020FEF73AFB5B
:103730007A20FEF737FBCB20FEF716FB3920FEF789
:1037400031FB2C20FEF72EFB0020FEF72BFB342054
:10375000FEF728FB0220FEF725FBF720FEF704FB0F
:103760002020FEF71FFBEA20FEF7FEFA0020FEF7FE
:1037700019FB0020FEF716FBC020FEF7F5FA1B2010
:10378000FEF710FBC120FEF7EFFA0120FEF70AFB5F
:10379000C520FEF7E9FA3020FEF704FB3020FEF7E3
:1037A00001FBC720FEF7E0FAB720FEF7FBFA362050
:1037B000FEF7DAFA4820FEF7F5FA3A20FEF7D4FAD7
:1037C0005520FEF7EFFAB120FEF7CEFA0020FEF703
:1037D000E9FA1A20FEF7E6FAB620FEF7C5FA0A2043
:1037E00000E098E0FEF7DEFAA220FEF7DBFAF22016
:1037F000FEF7BAFA0020FEF7D5FA2620FEF7B4FA53
:103800000120FEF7CFFAE020FEF7AEFA0F20FEF718
:10381000C9FA2A20FEF7C6FA2820FEF7C3FA0820C4
:10382000FEF7C0FA0E20FEF7BDFA0820FEF7BAFA3E
:103830005420FEF7B7FAA920FEF7B4FA4320FEF7AA
:10384000B1FA0A20FEF7AEFA0F20FEF7ABFA00201D
:10385000FEF7A8FA0020FEF7A5FA0020FEF7A2FA6C
:103860000020FEF79FFAE120FEF77EFA0020FEF727
:1038700099FA1520FEF796FA1720FEF793FA07201B
:10388000FEF790FA1120FEF78DFA0620FEF78AFA6D
:103890002B20FEF787FA5620FEF784FA3C20FEF72D
:1038A00081FA0520FEF77EFA1020FEF77BFA0F2042
:1038B000FEF778FA3F20FEF775FA3F20FEF772FA1E
:1038C0000F20FEF76FFA2B20FEF74EFA0020FEF7CE
:1038D00069FA0020FEF766FA0120FEF763FA3F203E
:1038E000FEF760FA2A20FEF73FFA0020FEF75AFAA8
:1038F0000020FEF757FA0020FEF754FAEF20FEF7FB
:1039000051FA1120FEF730FA322000F053FA292044
:10391000FEF72AFABAE03148808849F2203188421D
:10392000F8D100210846FEF796FA4FF48071012085
:10393000FEF791FA4FF4E0610220FEF78CFA41F2B3
:1039400030010320FEF787FA00210420FEF783FAF6
:1039500040F202210820FEF77EFA00210920FEF73E
:103960007AFA00210A20FEF776FA01210C20FEF7F0
:1039700072FA00210D20FEF76EFA00210F20FEF7EB
:103980006AFA322000F016FA40F201110720FEF721
:1039900062FA322000F00EFA4FF486511020FEF742
:1039A0005AFA07211120FEF756FA4FF488711220B7
:1039B000FEF751FA4FF430611320FEF74CFA002164
:1039C0002920FEF748FA44F210012B2008E00000FD
:1039D0000010014000023000000C014038000020BF
:1039E000FEF739FA00215020FEF735FAEF21512079
:1039F000FEF731FA00215220FEF72DFA40F23F1176
:103A00005320FEF728FA4FF41C516020FEF723FAEA
:103A100001216120FEF71FFA00216A20FEF71BFA40
:103A200000218020FEF717FA00218120FEF713FA0B
:103A300000218220FEF70FFA00218320FEF70BFA07
:103A400000218420FEF707FA00218520FEF703FA03
:103A500010219020FEF7FFF900219220FEF7FBF9DC
:103A600001219320FEF7F7F94FF488719520FEF7B6
:103A7000F2F900219720FEF7EEF900219820FEF7D9
:103A8000EAF940F273110720FEF7E5F90020FFF78D
:103A900025FA0120BA4908604FF6FF70FFF74EFD86
:103AA00008BD2DE9F84F0746884616461C46C34612
:103AB0002046E31704EB5373DB1021464FEAE47C06
:103AC00004EB5C7C4FEAEC0CA4EBCC0CBCF1000FDB
:103AD00002D04FF0010C01E04FF0000C634422468D
:103AE00004EBD27C4FEA6C0C03FB0CF3DBB20093CB
:103AF000A6F12000C6B2002556E00C2C07D106EB3B
:103B00004600A04901EB800010F8059013E0102C4E
:103B100005D19D4800EB061010F805900BE0182C1D
:103B200007D106EBC600994901EB800010F805901B
:103B300001E0BDE8F88F4FF0000A2FE009F08000A7
:103B400030B19348028841463846FEF7DEFF07E071
:103B50000A9828B98F48028841463846FEF7D5FFB3
:103B60004FEA49604FEA106908F101001FFA80F836
:103B700089480088B84200DCDBE7A8EB0B00A042D4
:103B800008D1D846781C87B283480088B84200DC48
:103B9000CFE706E00AF1010000F0FF0ABAF1080FD2
:103BA000CCDB00BF681CC5B200988542A5DB00BF16
:103BB000BFE710B50246012000E050430B00A1F121
:103BC0000104E1B2F9D110BD2DE9FF4F81B00746E4
:103BD00091461E460E9D4FF0000A002439E0301B2E
:103BE000401EC1B20A20FFF7E4FFB9FBF0F00A2142
:103BF000B0FBF1F201FB1208BAF1000F16D1701EF2
:103C0000A04213DDB8F1000F0ED10020AB4605EB4A
:103C1000DB71491001FB0471009088B22B46202211
:103C20000299FFF73EFF12E04FF0010A0020AB4679
:103C300005EBDB71491001FB0471009088B208F1BB
:103C40003001CAB22B460299FFF72BFF00BF601C60
:103C5000C4B2B442C3DB05B0BDE8F08F2DE9FF4F1D
:103C600083B0064692461F46DDE9104800200290C8
:103C700000254DE0781B401EC1B20A20FFF799FFD6
:103C8000BAFBF0F00A21B0FBF1F201FB1209029835
:103C900050BB781EA84227DDB9F1000F22D108F0F1
:103CA000800078B108F00100A34604EBDB714910F5
:103CB00001FB0561009088B2234630220499FFF78A
:103CC000F0FE0EE008F00100A34604EBDB714910A2
:103CD00001FB0561009088B2234620220499FFF77A
:103CE000E0FE13E00120029008F00100A34604EB7F
:103CF000DB71491001FB0561009088B209F13001C8
:103D0000CAB223460499FFF7CCFE00BF681CC5B2B7
:103D1000BD42AFDB07B0BDE8F08F2DE9F84F044698
:103D20000D4690469946DDE90A6704F0FF0A08EB64
:103D300004001FFA80F809EB05001FFA80F916E06D
:103D4000444502DB5446A81985B24D4500DB14E01A
:103D5000002000903A78334629462046FFF7A1FE1E
:103D6000304606EBD07104EB61018CB27F1C3878D1
:103D70007E2802DC38782028E2DA00BFBDE8F88F20
:103D8000A8012242B240000826450008164B000850
:103D9000280000202A00002038000020002106E032
:103DA000002200E0521C072AFCD34B1C99B281422E
:103DB000F6DB7047002107E0002200E0521CB2F55C
:103DC000E15FFBD34B1C99B28142F5DB70470021C8
:103DD00007E0002200E0521C034B9A42FBD34B1C2D
:103DE000D9B28142F5DB704700DD6D0030B589B096
:103DF00005460C4601210820FDF751F80121042059
:103E0000FDF740F80220ADF8200028208DF82300AF
:103E100003208DF8220008A98248FCF777FD0221D3
:103E20008048FCF720FEADF81850ADF81440002093
:103E3000ADF81A00ADF8160005A97B48FDF75AF950
:103E40000420ADF808000020ADF80A000120ADF80C
:103E50000C000020ADF80E000320ADF8100002A900
:103E60007148FDF7DAFB01216F48FDF765FF4FF45C
:103E70008060FCF77DFC32208DF8040002208DF874
:103E8000050000208DF8060001208DF8070001A82C
:103E9000FCF773FC012205216348FDF7A2FC012118
:103EA0006148FDF783FC09B030BD10B501215E48C3
:103EB000FDF745FF50B15D48007800F0800028B163
:103EC0005A48007820F0800058490870042156486C
:103ED000FDF735FF002810D05548006870B100216B
:103EE0005148FDF7F7FE02214F48FDF723FE4F48EA
:103EF000007840F010004D49087070E04A48FDF726
:103F000002FF4C49088000214748FDF713FE47484F
:103F1000007800F0100000285BD04448007800F0E2
:103F20008000E8B343480088B0F5967F0DDD414836
:103F30000088B0F5487F08DA3F48006840003E49F5
:103F4000086008460068086043E03A480088B0F519
:103F5000AF6F0FDD37480088B0F5E16F0ADA3648F9
:103F600000684000344908600846006840F00100DD
:103F700008602EE02F48008840F69801884228DD2E
:103F80002C48008840F62821884222DA2B48007805
:103F9000401C2A4908702548007800F0F00000E035
:103FA00002E02249087014E02248008841F26801CA
:103FB00088420EDD1F48008841F25C21884208DA01
:103FC0001A48007840F080001849087000201B490A
:103FD00008701648007820F0100014490870052178
:103FE0001148FDF7BDFE10BD30B5002000210024B2
:103FF00000220023104D2D68290E0F4D2D68C5F3AA
:104000000744E543EDB28D420BD151B90A4D2D88DD
:10401000C5F30722084D2B78DD43EDB2954200D160
:10402000104630BD00080140000C00402C0000206C
:10403000040121422E000020300000203400002026
:10404000704770477047754600F028F8AE46050087
:104050006946534620F00700854618B020B5FCF7A6
:10406000C3F8BDE820404FF000064FF000074FF0C6
:1040700000084FF0000B21F00701AC46ACE8C00986
:10408000ACE8C009ACE8C009ACE8C0098D4670478F
:104090000446AFF300802046FCF791F800487047D3
:1040A0004800002001491820ABBEFEE726000200B0
:1040B0007047000000000000000000000000000049
:1040C00000003F4000000000000000003000400001
:1040D00030004000000009000BC03D000BC03D0057
:1040E000090018C024407FE0224031800000180001
:1040F00024C01B000D803240018003801C402740FB
:104100001C8007400040100060000000000000001C
:1041100000000000000000001F8020404020000040
:10412000402020401F8000000000090006001F8082
:10413000060009000000040004003F8004000400A1
:1041400000000010006000000000000000000400FB
:10415000040004000400040000000000004000000F
:10416000000000000000002001C0060038004000F0
:1041700000001F802040204020401F8000000000E1
:1041800010403FC000400000000018C02140224005
:1041900024401840000010802040244024401B8010
:1041A000000002000D0011003FC0014000003C80F3
:1041B000244024402440238000001F8024402440C9
:1041C0003440038000003000200027C03800200069
:1041D00000001B802440244024401B8000001C0061
:1041E00022C0224022401F80000000000000084042
:1041F000000000000000000000000460000000005B
:104200000000000004000A00110020804040090066
:10421000090009000900090000000000404020805A
:1042200011000A0004001800200023402400180098
:1042300000001F802040274029401F400000004010
:1042400007C039000F0001C0004020403FC024409B
:1042500024401B8000001F802040204020403080F0
:10426000000020403FC0204020401F800000204030
:104270003FC024402E4030C0000020403FC02440BA
:104280002E00300000000F001080204022403380BC
:10429000020020403FC0040004003FC020402040F6
:1042A00020403FC02040204000000060202020200F
:1042B0003FC02000200020403FC024400B0030C001
:1042C000204020403FC020400040004000C03FC090
:1042D0003C0003C03C003FC0000020403FC00C40F9
:1042E00023003FC020001F802040204020401F802E
:1042F000000020403FC024402400180000001F8020
:104300002140214020E01FA0000020403FC0244069
:10431000260019C0004018C02440244022403180AB
:104320000000300020403FC020403000000020004E
:104330003F80004000403F80200020003E0001C040
:10434000070038002000380007C03C0007C03800D4
:104350000000204039C0060039C020400000200085
:10436000384007C0384020000000304021C02640BF
:10437000384020C00000000000007FE040204020C6
:104380000000000070000C000380004000000000EE
:10439000402040207FE0000000000000200040009E
:1043A000200000000000001000100010001000109D
:1043B00000100000000040000000000000000000AD
:1043C00002800540054003C0004020003FC004407B
:1043D00004400380000000000380044004400640C5
:1043E000000000000380044024403FC00040000063
:1043F00003800540054003400000000004401FC04A
:10440000244024402000000002E0055005500650E2
:10441000042020403FC00440040003C000400000CE
:10442000044027C0004000000000001000100410ED
:1044300027E00000000020403FC00140070004C00A
:104440000440204020403FC000400040000007C022
:10445000040007C0040003C00000044007C004407B
:10446000040003C0004000000380044004400380B7
:104470000000041007F00450044003800000000016
:1044800003800440045007F00010044007C00240BD
:10449000040004000000000006400540054004C080
:1044A0000000000004001F800440004000000400E1
:1044B00007800040044007C000400400070004C01B
:1044C000018006000400060001C0070001C00600CC
:1044D0000000044006C0010006C0044000000410B3
:1044E000071004E00180060004000000044005C03D
:1044F0000640044000000000000004007BE0402073
:104500000000000000000000FFF0000000000000BC
:1045100040207BE0040000000000400080004000DC
:10452000200020004000000000000000000000000B
:104530000000000000000000000000001FCC000C84
:1045400000000000000000000800300060000800CB
:10455000300060000000022003FC1E20022003FC4B
:104560001E200220000000000E1811043FFF1084DE
:104570000C78000000000F0010840F3800C007788E
:1045800018840078000000780F8410C411240E985D
:1045900000E40084000808006800700000000000CB
:1045A00000000000000000000000000007E01818F4
:1045B000200440020000000040022004181807E018
:1045C0000000000000000240024001800FF0018066
:1045D0000240024000000080008000800FF8008050
:1045E0000080008000000001000D000E00000000AF
:1045F00000000000000000000080008000800080BB
:104600000080008000800000000C000C0000000012
:10461000000000000000000000060018006001809B
:10462000060018002000000007F00808100410041D
:10463000080807F000000000080408041FFC00043C
:1046400000040000000000000E0C101410241044A0
:1046500011840E0C000000000C1810041104110449
:1046600012880C700000000000E0032004240824DD
:104670001FFC0024000000001F9810841104110486
:10468000108810700000000007F008881104110461
:1046900018880070000000001C00100010FC1300BF
:1046A0001C001000000000000E381144108410841B
:1046B00011440E38000000000700088C104410441C
:1046C000088807F00000000000000000030C030C45
:1046D00000000000000000000000000101060000D2
:1046E00000000000000000000080014002200410D3
:1046F00008081004000002200220022002200220EC
:10470000022002200000000010040808041002200B
:1047100001400080000000000E001200100C106C20
:1047200010800F00000003E00C1813E4142417C4D9
:10473000082807D000000004003C03C41C400740C8
:1047400000E4001C000410041FFC110411041104F7
:104750000E880070000003E00C1810041004100410
:1047600010081C10000010041FFC1004100410049A
:10477000080807F0000010041FFC1104110417C4FE
:1047800010040818000010041FFC1104110017C0C9
:1047900010000800000003E00C181004100410447E
:1047A0001C780040000010041FFC10840080008072
:1047B00010841FFC10040000100410041FFC1004DF
:1047C00010040000000000030001100110011FFE92
:1047D00010001000000010041FFC1104038014647A
:1047E000181C1004000010041FFC10040004000436
:1047F0000004000C000010041FFC1F0000FC1F0040
:104800001FFC1004000010041FFC0C04030000E057
:1048100010181FFC100007F0080810041004100402
:10482000080807F0000010041FFC1084108010809E
:1048300010800F00000007F0081810241024101C2E
:10484000080A07F2000010041FFC1104110011C037
:1048500011300E0C000400000E1C11041084108492
:1048600010441C3800001800100010041FFC100435
:1048700010001800000010001FF8100400040004CD
:1048800010041FF8100010001E0011E0001C007042
:1048900013801C0010001FC0103C00E01F0000E04F
:1048A000103C1FC000001004180C163401C001C0D9
:1048B0001634180C100410001C00130400FC130420
:1048C0001C00100000000804101C10641084130465
:1048D0001C04101800000000000000007FFE4002D1
:1048E000400240020000000030000C000380006025
:1048F000001C0003000000004002400240027FFE56
:104900000000000000000000000020004000400007
:104910004000200000000001000100010001000132
:1049200000010001000100004000400020000000E4
:104930000000000000000000009801240144014430
:10494000014400FC000410001FFC00880104010465
:10495000008800700000000000700088010401045D
:1049600001040088000000000070008801040104B8
:1049700011081FFC0004000000F801440144014438
:10498000014400C800000000010401040FFC1104F0
:10499000110411001800000000D601290129012985
:1049A00001C90106000010041FFC00840100010081
:1049B000010400FC000400000104190419FC0004B7
:1049C00000040000000000000003000101011901C3
:1049D00019FE0000000010041FFC0024004001B478
:1049E000010C010400000000100410041FFC00046E
:1049F000000400000000010401FC0104010001FCAE
:104A00000104010000FC010401FC0084010001001C
:104A1000010400FC0004000000F80104010401048A
:104A2000010400F80000010101FF008501040104F8
:104A3000008800700000000000700088010401047C
:104A4000010501FF00010104010401FC00840104CF
:104A5000010001800000000000CC01240124012499
:104A600001240198000000000100010007F8010482
:104A7000010400000000010001F80004000400042B
:104A8000010801FC0004010001800170000C00100D
:104A900001600180010001F0010C003001C0003014
:104AA000010C01F0010000000104018C0074017090
:104AB000018C01040000010101810171000E001848
:104AC00001600180010000000184010C01340144F7
:104AD0000184010C00000000000000000000010043
:104AE0003EFC400240020000000000000000FFFF0A
:104AF0000000000000000000400240023EFC0100F7
:104B00000000000000000000600080008000400005
:104B10004000200020000000000000000000000015
:104B20000000000000000000000000000000000085
:104B30000000000000000000000000000000000075
:104B40000000000000000000000F80380FFE380F4A
:104B5000803800000000000000000000000000009D
:104B6000000000000100000600000C0000380000FA
:104B70003100000600000C0000380000300000008A
:104B800000000000000061800067F807F980006104
:104B9000800061800061800061800067F807F98013
:104BA00000618000000000000000000001C0E00380
:104BB000E0F00630080418081FFFFE040E080787FF
:104BC000F00381E000000000000001F000060C008E
:104BD000040408060C7001F9C0000E00003BE00060
:104BE000EC18070808040C180003E000000000019E
:104BF000E00007F003F818041C0804170807E1D0C8
:104C000003C0E00023B0003C0800200800001000B2
:104C100000000000000100003100003200001C0014
:104C20000000000000000000000000000000000084
:104C30000000000000000000000000000000000074
:104C40000000000000007F0001FFC00780F00C00A2
:104C500018100004200002000000000000200002E4
:104C60001000040C00180780F001FFC0007F000056
:104C70000000000000000000000000000000000034
:104C800000004200006600006600003C00001800C2
:104C900003FFC0001800003C000066000066000032
:104CA00042000000000008000008000008000008A2
:104CB0000000080001FFC000080000080000080014
:104CC00000080000080000000000000100003100A2
:104CD000003200001C000000000000000000000086
:104CE00000000000000000000000000000000800BC
:104CF000000800000800000800000800000800008C
:104D00000800000800000800000800000000000083
:104D100000000000000038000038000038000000EB
:104D20000000000000000000000000000000000083
:104D3000000000000000000600001C0000700001E0
:104D400080000E0000380000C0000700001C0000BA
:104D5000300000000000000000007F8001FFE00341
:104D6000807006001804000804000806001803807C
:104D70007001FFE0007F80000000000000000000E4
:104D800001000801000801000803FFF807FFF80010
:104D900000080000080000080000000000000000FB
:104DA0000001C03802C05804009804011804021819
:104DB000040418061C1803F81801E0F800000000AD
:104DC000000000000001C0E003C0F0040008040877
:104DD0000804080806180803F41801E7F00001E0C9
:104DE000000000000000000000000300000D0000B3
:104DF000110000610000810803010807FFF80FFFA0
:104E0000F80001080001080000000000000000E0B8
:104E100007FCD00608080610080610080610080649
:104E20001838060FF00607C0000000000000000060
:104E300000003F8001FFE0038430020818041008DE
:104E4000041008041008071810030FF00007C00032
:104E5000000000000000000003C000070000060082
:104E6000000600F80607F806180006E00007000034
:104E700006000000000000000001E1E003F7F0067A
:104E80003410041808041808040C08040C0806164A
:104E90001803F3F001C1E000000000000000F8007A
:104EA00003FC300306380402080402080402080464
:104EB00004100308F001FFC0007F000000000000A4
:104EC000000000000000000000000000000070383A
:104ED0000070380070380000000000000000000082
:104EE00000000000000000000000000000000000C2
:104EF0000000301A00301C0000000000000000001C
:104F00000000000000000000000000000008000099
:104F100014000022000041000080800100400200D7
:104F2000200400100800080000000000000021001C
:104F300000210000210000210000210000210000CC
:104F400021000021000021000021000000000000DD
:104F500000000000080008040010020020010040CA
:104F600000808000410000220000140000080000C2
:104F7000000000000003C00004C00004000008009E
:104F800038080F380808380810000C300007E00017
:104F900003C000000000000000003F8000FFE003AD
:104FA0008070020F1006708804C088048308047F94
:104FB0008802C09003012000FE4000000800001895
:104FC0000001F8003E0801C20007020007E20000ED
:104FD000FE00001FC80001F80000380000080400AF
:104FE0000807FFF807FFF804080804080804080881
:104FF00004080806180803F41801E7F00001E000AF
:105000000000000000003F8001FFE003807002000C
:10501000180400080400080400080400100600201A
:105020000780C000000004000807FFF807FFF8042D
:10503000000804000804000804001802001003809F
:105040007001FFE0007F8000000004000807FFF807
:1050500007FFF804080804080804080804080804FE
:105060003E0804000806001801006000000004006B
:105070000807FFF807FFF804080804080004080000
:10508000040800043E000600000600000180000045
:105090000000000000003F8001FFE0038070060078
:1050A000180400080402080402080203F00783F051
:1050B00000020000020004000807FFF807FFF804E0
:1050C00008080008000008000008000008000408A4
:1050D0000807FFF807FFF8040008000000000000C0
:1050E00004000804000804000807FFF807FFF8049C
:1050F0000008040008040008000000000000000090
:105100000000000600000700000104000104000187
:1051100004000307FFFE07FFFC0400000400000476
:10512000000004000807FFF807FFF8040C08001847
:1051300000003E0004C7800503C80600F8040038DC
:1051400004001800000804000807FFF807FFF8042F
:105150000008000008000008000008000008000027
:105160000800001800006000000004000807FFF8B5
:1051700007800807FC00007FC00003F80007C0009C
:10518000780007800807FFF807FFF804000804000C
:105190000807FFF807000803C00000E0000038001F
:1051A000001E000007000001C00400F007FFF80423
:1051B0000000000000007F8001FFE0038070060017
:1051C0001804000804000806001803003001FFE07E
:1051D000007F8000000004000807FFF807FFF804C4
:1051E0000408040400040400040400040400060C81
:1051F0000003F80001F000000000000000007F80C4
:1052000001FFE00380700600880400880400C806DF
:10521000003C03003E01FFE6007F84000000040024
:105220000807FFF807FFF8040808040800040C004A
:10523000040F00040BC00610F003F03801E0080072
:10524000000800000001E0F803F0300630100418F8
:1052500008041808040C08040C080206180207F0D9
:105260000781E00000000180000600000400000447
:10527000000004000807FFF807FFF8040008040016
:105280000004000006000001800004000007FFE0A9
:1052900007FFF004001800000800000800000800E4
:1052A000000800000804001007FFE00400000400EC
:1052B0000006000007E00007FE00041FE00001F800
:1052C0000000380001E0043E0007C00006000004B2
:1052D000000004000007E00007FFC0041FF80007FB
:1052E000C007F80007FF80043FF80007C004F8007B
:1052F0000700000400000000000400080600180772
:10530000C07805F1C8003E00001F800463E80780F4
:10531000F806001804000800000004000006000061
:1053200007800007E008047C08001FF80007F80069
:10533000180804E008070000060000040000000050
:10534000000100080600380400F80403E8040F0810
:10535000047C0805F00807C0080700180400600076
:10536000000000000000000000000000000000003D
:10537000003FFFFE20000220000220000220000269
:1053800020000200000000000000000008000007EC
:10539000000000C0000038000006000001C000004E
:1053A0003000000E000001000000000000000000BE
:1053B0002000022000022000022000022000023F04
:1053C000FFFE0000000000000000000000000000E0
:1053D0000000000000000008000010000030000085
:1053E0002000003000001000000800000000000055
:1053F00000000000010000010000010000010000A9
:105400000100000100000100000100000100000196
:10541000000001000001000000000000000000206A
:10542000000020000010000010000000000000003C
:10543000000000000000000000000000000000F07C
:105440000019F8001B180022080026080024080094
:105450002410003FF8001FF80000080000180000AA
:105460000004000007FFF80FFFF0001818001008F4
:10547000002008002008003018001FF0000FC000B6
:1054800000000000000007C0001FF00018300020DE
:1054900008002008002008003C08001C10000060E4
:1054A0000000000000000000000007C0001FF00026
:1054B000381800200800200800200804101007FFFA
:1054C000F80FFFF0000010000000000000000000D6
:1054D0000007C0001FF00012300022180022080050
:1054E0002208003208001E10000E200000000000FC
:1054F0000000200000200800200801FFF803FFF84A
:1055000006200804200804200807200003000000EB
:10551000000000000000000E000E6E001FF30031BE
:10552000B10020B10020B1003191001F13002E1EE8
:1055300000200E00300000000004000807FFF80FF4
:10554000FFF8001008002000002000002008003FA5
:10555000F8001FF800000800000000000000000034
:10556000002008002008002008063FF8063FF80049
:105570000008000008000008000000000000000013
:1055800000000000000003000003002001002001D3
:10559000002003063FFE063FFC0000000000000064
:1055A000000000000004000807FFF80FFFF80001EA
:1055B00088000300002FC00038F8002038002008C1
:1055C00000000800000000000000000004000804C3
:1055D000000804000807FFF80FFFF80000080000AB
:1055E00008000008000000000000002008003FF84C
:1055F000003FF8001008002000003FF8003FF800CE
:105600001008002000003FF8003FF80000080000EC
:1056100000002008003FF8003FF8001008001000CC
:10562000002000002008003FF8001FF800000800DC
:1056300000000000000007C0000FF000183000302C
:1056400008002008002008003008001830000FF083
:105650000007C0000000000000002001003FFF0024
:105660003FFF001011002009002008002008003032
:1056700038001FF0000FC00000000000000007C04D
:10568000001FF00038180020080020080020090042
:105690001011001FFF003FFF00000100000000206C
:1056A00008002008002008003FF8003FF800080824
:1056B000001008002008002000003000003000002A
:1056C0000000000000000000000C78001E180033ED
:1056D000080023080021080021880021980030F0EC
:1056E00000386000000000000000200000200000E2
:1056F000200000FFF003FFF8002008002008002031
:105700000800003000000000000000000000200041
:10571000003FF0007FF800001800000800000800BB
:105720002010003FF8007FF0000010000000000093
:1057300000002000003000003C00003F800023F00B
:10574000000078000070002380003C000030000062
:105750002000002000003C00003FE00023F8000093
:10576000E0002700003E00003FE00021F80001E0DB
:10577000003E00002000000000002008002008007B
:105780003838003E680027800003C8002CF8003835
:105790003800201800200800000000000000200051
:1057A000003003003C01003F830023EC0000700048
:1057B0002380003C000020000020000000000000CA
:1057C000000000000038080020380020F80023E81E
:1057D000002F88003E0800380800201800007000E4
:1057E00000000000000000000000000000000000B9
:1057F000000008000014001FF7FC30000620000223
:105800000000000000000000000000000000000098
:105810000000000000000000FFFFFF00000000008B
:105820000000000000000000000000000000000078
:105830002000023000061FF7FC00140000080000E2
:105840000000000000000000000000000000000058
:105850000018000060000040000040000020000030
:105860001000000800000400000400000C000010FC
:1058700000000000945800080000002038000000DC
:105880006C010008CC5800083800002070060000A9
:105890008801000800A24A04000000000000000087
:1058A00001020304060708090000000001020304C6
:1058B0000102030406070809020406080000FFFFAE
:0C58C000000000000000000000000000DC
:0400000508000131BD
:00000001FF
